S015000048656C6C6F576F726C645F4F532E7372656312
S1130000E02F00202D570000215700002357000047
S11300102957000025570000275700002B570000E0
S11300202B5700002B5700002B5700002B570000C4
S11300302B5700002B570000EB320000790D000015
S1130040013900000B390000153900001F39000088
S113005029390000333900003D39000047390000D8
S1130060513900002B5700002B5700002B5700007C
S11300702B5700002B5700005B3900006539000046
S11300806F39000079390000833900008D39000090
S113009097390000A1390000AB390000B5390000E0
S11300A0BF390000C9390000D3390000DD39000030
S11300B0E7390000F1390000FB390000053A00007F
S11300C00F3A0000193A0000233A00002D3A0000CC
S11300D0373A0000413A00002B5700004B3A000029
S11300E0553A00002B5700005F3A0000693A0000BF
S11300F0733A00002B5700007D3A0000873A000055
S1130100913A00009B3A0000A53A0000AF3A000083
S10F0110B93A0000C33A0000CD3A0000E8
S113011C2DE9F24F82B00600170098460024149D76
S113012CDFF8AC070078002803D047F24A10288087
S113013CB0E0002E03D147F2AD102880AAE03800BD
S113014C002803D147F24F102880A3E0DDF8349047
S113015CB9F1000F03D146F62C6028809AE0DDF843
S113016C3CA0DFF888080068824503D246F62D606F
S113017C28808FE0DDF838B0D34503D346F62E60E3
S113018C288087E00C9CE4B2082C03D346F273203D
S113019C28807FE0E4B2072C07D1DFF830098642CF
S11301AC03D046F27320288074E0300000F094FBF6
S11301BC00202880139DE8070AD5A80708D54846CF
S11301CC002103E000220260001D491C5145F9D3B3
S11301DC19EB8B0BADB20195CDF800A05B464A46EA
S11301EC4146380000F031FDB762C6F82C80029904
S11301FC316286F837403060C6F808B011987065E3
S113020C002804D1DFF8DC080068B06500E0B065B4
S113021C12987060C6F82490C6F838A0B5870020F0
S113022C05E080B216EB80010022CA67401C80B244
S113023C0028F6D0109916F1640000F04DFE300041
S113024C00F0E8FC00F0DAFE040000F047FF96F83A
S113025C370000F0F3FF300001F019FC300000F01F
S113026CEEFADFF884080088401CDFF87C1808805C
S113027CDFF84C090078012805D000F043FF20007A
S113028C00F0C0FE06E000F03DFF200000F0BAFED6
S113029C01F018F9BDE8F78FF8B505000C0000263D
S11302ACDFF82C060078002803D047F24E1020808B
S11302BC4FE0DFF81808854203D147F24C10208038
S11302CC47E0002D0CD100F099FE060000F006FF6B
S11302DCDFF80006056800F015FF300000F092FE10
S11302EC00F08CFE060000F0F9FE95F836000028AC
S11302FC0BD0022833D02ED304282BD02FD306288E
S113030C2DD028D307282AD03FE0280001F000FC88
S113031C15F1640000F0BEFD0700280000F083FC1A
S113032C280000F0A3FADFF8C0070088401EDFF8AD
S113033CB8170880280000F0CFFAFF2085F83600A3
S113034C00F0E0FE300000F05DFE01F0BBF8002090
S113035C2080F1BDDCE7280001F0E7FDD8E7280098
S113036C01F0E3FD95F83400002808D0401E07D0B6
S113037C401E04D0401E032802D9001F04D103E000
S113038C280001F093FAFFE7C2E700F0BBFE30004F
S113039C00F038FE46F62A602080DAE72DE9F047B3
S11303AC8046894692461E000024089FDFF82005EB
S11303BC0078002804D046F2AE1038800020D7E034
S11303CCBAF1000F04D146F2D52038800020CFE0DA
S11303DC1FFA89F94846002802D0B0F5004F38D1ED
S11303EC002E01D00020306000F008FE040000F064
S11303FC75FEDFF8D407006864303B0032005146C8
S113040C00F074FD05003888002827D1002E19D07F
S113041C01F0AEFE3168401ADFF8AC170968486782
S113042CDFF8A4070068806FDFF89C170968496F30
S113043C884207D2DFF890070068DFF88C17096848
S113044C496F816700F05EFE200000F0DBFD2800A0
S113045C8EE045F625603880002089E05FEA09408B
S113046C09D546F2B010388000F04CFE200000F0A4
S113047CC9FD00207CE0DFF854070078002809D07F
S113048C00F040FE200000F0BDFD46F663503880BD
S113049C00206DE0434602220021002001F048F9BF
S11304AC00F030FE200000F0ADFD01F00BF800F080
S11304BCA5FD040000F012FEDFF80C07006890F8AC
S11304CC3500002802D0012832D03DE0DFF8F806D0
S11304DC0068C56DDFF8F0060068B0F86000AAF893
S11304EC0000002E21D0DFF8E0060068006C3060BC
S11304FC01F03EFEDFF8D0160968096C401ADFF8EB
S113050CC81609684867DFF8C0060068806FDFF812
S113051CB8160968496F884207D2DFF8AC06006840
S113052CDFF8A4160968496F81670020388019E048
S113053C00250020AAF80000002E01D00020306015
S113054C46F2A91038800DE000250020AAF800001E
S113055C002E04D0DFF870060068006C306047F29F
S113056CD920388000F0CEFD200000F04BFD28008F
S113057CBDE8F087F0B583B004000D0016001F0031
S113058C01F0F6FD0899019100903B009BB23200FA
S113059C92B22900200000F02BFAF7BD2DE9F041AE
S11305AC0700884616001C000025DFF82403007899
S11305BC002804D046F2AE1020800020D3E0002E98
S11305CC01D00020306000F019FD050000F086FD1C
S11305DCDFF8F4050068406C00283ED0DFF8E8052D
S11305EC0068406C401EDFF8E01509684864DFF8C9
S11305FCD8050068476C002E04D0DFF8CC050068E1
S113060C006C306001F0B4FDDFF8BC150968096CAE
S113061C401ADFF8B4150968C1F8A000DFF8A80582
S113062C0068D0F8A400DFF8A0150968D1F8A01070
S113063C884209D2DFF890050068DFF88C15096848
S113064CD1F8A010C0F8A41000F05CFD280000F054
S113065CD9FC00202080380085E05FEA084009D5E9
S113066C00F050FD280000F0CDFC46F2B0102080C4
S113067C002078E0DFF854050078002809D000F059
S113068C41FD280000F0BEFC46F66350208000209B
S113069C69E03B0007220021002001F049F800F03A
S11306AC31FD280000F0AEFC00F00CFF00F0A6FCBD
S11306BC050000F013FDDFF81005006890F8350014
S11306CC002804D001282ED0032837D03EE0002E79
S11306DC26D0DFF8F4040068006C306001F048FDAB
S11306ECDFF8E4140968096C401ADFF8DC140968B3
S11306FCC1F8A000DFF8D0040068D0F8A400DFF83B
S113070CC8140968D1F8A010884209D2DFF8B804DB
S113071C0068DFF8B4140968D1F8A010C0F8A4106C
S113072C0020208015E0002E04D0DFF89C04006823
S113073C006C306046F2A91020800AE0002E01D033
S113074C0020306047F2D920208002E046F62B606E
S113075C2080DFF874040068476C00F0D3FC280098
S113076C00F050FC3800BDE8F08170B504000D00B9
S113077C160001F0FDFC02003300290089B22000B0
S113078C00F0B4F970BD2DE9F04104000D00160021
S113079C1F005FF000084E480078002803D047F291
S11307AC5810388049E0002D03D146F2D52038800A
S11307BC43E0002E03D146F2D52038803DE000F012
S11307CC1DFC804600F08AFC002C02D1DFF8F803F3
S11307DC0468206800280CD100F094FC404600F01A
S11307EC11FC002028600020306047F25210388041
S11307FC23E094F83C00C0070CD400F083FC404682
S113080C00F000FC002028600020306047F25410F7
S113081C388012E000F076FC404600F0F3FB002038
S113082C616A01E0091D401C0A68002AFAD028609C
S113083CA16B081A306000203880BDE8F0810021DB
S113084CC0F8B810DFF888130968002903D1002117
S113085CC0F8BC1007E0DE490968C0F8BC10DC49DC
S113086C0968C1F8B800DA4908607047D0F8B820B4
S113087CD0F8BC10002A0AD1D54A1160002902D044
S113088C0022C1F8B8200021C0F8BC1012E00029E5
S113089C06D10021C2F8BC100021C0F8B81009E040
S11308ACC2F8BC10C1F8B8200021C0F8BC1000215B
S11308BCC0F8B8107047C64900220A608A49002261
S11308CC0A80C44900220A6000210180704700009C
S11308DCD1270020B427002010B50400002020608C
S11308EC0020A060002060600020E06000202061F7
S11308FC002060610020A0610020E061B648206205
S113090C002060620020A0620020E06200202064CD
S113091C0020E0650020A4F86000002114F16400BC
S113092C00F0DAFA002060670020A0670020C4F809
S113093C80000020A4F888000020C4F88400002063
S113094C05E0C0B214EB80010022CA67401CC0B29F
S113095C0028F6D0002060640020C4F8A000002019
S113096CC4F8A4000020A063002084F88A000020AE
S113097CC4F8AC000020C4F8A8000020A0875FF0E5
S113098C0040A0640020E064002020650020606525
S113099C0020A065002084F88B000020C4F88C0093
S11309AC0020C4F8900001F0E3FBC4F8940000208C
S11309BCC4F898000020C4F8B0000020C4F8B400B7
S11309CC002084F83400002084F83500002084F8DA
S11309DC3600082084F837000020C4F8B800002042
S11309ECC4F8BC0077A0C4F8C00010BDA057000028
S11309FC2DE9F04383B080460C0015001E0000273F
S1130A0C00F0FCFA070000F069FBB8F1000F02D10A
S1130A1C6D48D0F80080DDF82C900020A9F8000077
S1130A2C0A9898F8361000290BD002291BD008D349
S1130A3C042906D017D3062915D002D3072912D0BE
S1130A4C39E0CDF80490009033009BB22A0092B2A6
S1130A5C210018F1640000F081FA00F053FB380017
S1130A6C00F0D0FA30E098F83410022911D100903B
S1130A7C2B009BB222004146002000F04FFF00F0F7
S1130A8C41FB380000F0BEFA300413D400F01AFD18
S1130A9C10E0CDF80490009033009BB22A0092B27F
S1130AAC210018F1640000F059FA00F02BFB380017
S1130ABC00F0A8FA08E000F025FB380000F0A2FAD8
S1130ACC46F62A60A9F80000BDE8F78384220020CA
S1130ADC80B53D48006800F0AFF800A90020FFF78E
S1130AECDBFB01BD78270020CA2700202DE9F0414B
S1130AFC82B007000C0090461E00002500F07EFA20
S1130B0C050000F0EBFA002F01D12F480768C7F855
S1130B1C40800020308097F8360000280BD0022843
S1130B2C21D008D3042806D01DD306281BD002D309
S1130B3C072818D038E0786C10F1010F09D100F0B7
S1130B4CE1FA280000F05EFA46F6C5503080002029
S1130B5C34E0786C401C78647E6C00F0D3FA280086
S1130B6C00F050FA29E097F83400072812D1CDF898
S1130B7C0080002300223900002000F0CFFE7E6CA0
S1130B8C00F0C0FA280000F03DFA20040BD400F069
S1130B9C99FC08E0786C401C78647E6C00F0B2FA26
S1130BAC280000F02FFA08E000F0ACFA280000F05E
S1130BBC29FA46F62A60308000263000BDE8F6811A
S1130BCCD227002020000000B4270020D5270020C5
S1130BDC94270020902700206057000080B57948A6
S1130BEC0068002802D077480068804701BD764829
S1130BFC00687649096811EB8000001F744908608D
S1130C0C704780B573480068002802D071480068AA
S1130C1C804701BD80B570490968002902D06E492E
S1130C2C0968884701BD80B56C490968002902D060
S1130C3C6A490968884701BD80B569490968002972
S1130C4C02D067490968884701BD10B404000198B3
S1130C5C12EB8000001F5FF080720260001F0460C2
S1130C6C001F604A0260001F5FF012320260001F16
S1130C7C5FF003320260001F5FF002320260001F5B
S1130C8C0360001F0160001F5FF011310160001F41
S1130C9C5FF010310160001F5FF009310160001F2B
S1130CAC5FF008310160001F5FF007310160001F25
S1130CBC5FF006310160001F5FF005310160001F19
S1130CCC5FF00431016010BC704780B54648006881
S1130CDC002802D044480068804701F049FA43498F
S1130CEC0968434A1268914215D040490968D1F801
S1130CFC9410411A3D4A1268C2F890103B49096895
S1130D0CD1F89810394A1268D2F890205118374A01
S1130D1C1268C2F8981036490968C1F8940000F0BA
S1130D2CB1F932490968D1F8B010814203D22F4984
S1130D3C0968C1F8B0002D480068D0F8B4002D49FA
S1130D4C0968884205D2294800682A490968C0F80C
S1130D5CB41028480021016001BD80B52648006804
S1130D6C002802D024480068804701BD10B5002437
S1130D7C00F044F9040000F0B1F920480078401C5C
S1130D8C1E49087000F0BEF9200000F03BF901F098
S1130D9C10FB00F033FB10BD401E194908601948C4
S1130DAC00680002000A174908601748006850F0F0
S1130DBC0500154908601448006850F002001249F7
S1130DCC08607047442700207C57000078570000C7
S1130DDC3027002048270020382700203C270020FB
S1130DEC40270020DD0A00004C270020B4270020F7
S1130DFCB82700207427002050270020D12700207A
S1130E0C14E000E020ED00E010E000E010B402007B
S1130E1C10324B1E002109E00260002444600024BF
S1130E2C04810024C46010301032491C89B29BB276
S1130E3C9942F1D30021016000214160002101811C
S1130E4C0021C16010BC704710B5040067480068ED
S1130E5C002803D145F21E7020801AE064480088F3
S1130E6C002803D145F21D70208012E060480188EF
S1130E7C5E480068FFF7CAFF5B485C49096801607B
S1130E8C59485B490988818057480021C18000205A
S1130E9C208010BD41894289002A1AD00268524B25
S1130EAC1B6813604268504B1A604F4AD2884389BE
S1130EBCD21A4D4BDA804C4A928843899A184A4B81
S1130ECC9A80002242810022828100220260002248
S1130EDC4260080080B270470181002141810021E9
S1130EEC81810021016000214160704770B4448904
S1130EFC002C0AD100200880002A01D000201060A8
S1130F0C46F292501880002026E045686C682E89C1
S1130F1C0E80002A01D0E96811602968416041689B
S1130F2C002904D1002101600021418102E04189A2
S1130F3C491E41812C48006828602B4805602A48CA
S1130F4C8088401C284988802748C088401E264930
S1130F5CC88000201880200070BC7047F0B4059C39
S1130F6C45890689B54203D346F29350208038E074
S1130F7C1D4DAD88002D03D145F21D70208030E04D
S1130F8C194D2D68184E2F683760174EB688761E8B
S1130F9C154FBE80144EF688761C134FFE8046897E
S1130FAC002E04D105604560012343810DE0DB066E
S1130FBC05D403681D6000232B60056002E04368C0
S1130FCC2B60456043895B1C438183894689B3420A
S1130FDC01D24389838169602A810498E8600020E6
S1130FEC2080F0BC704700000427002088570000C4
S1130FFCFE3A000072B6704762B67047EFF3108089
S113100C72B6704780F310887047B0FA80F070475E
S113101C90FAA0F0704730BF704720BF704710B4EF
S113102C50F8041B81B102681218001D50F8043BDF
S113103CDC0744BFA9F10104E31852F8044B43F84C
S113104C044B091FF9D1EBE710BC704780B500F0D5
S113105C7DF800F082F800F075F801BD10B500249D
S113106CFFF7CCFF040000F039F810215D4801F0C3
S113107CD9F900F047F82000FFF7C4FF10BD5A4916
S113108C0860704738B5002500F00CF80400FFF731
S113109CB5FF05005548002101602800FFF7B2FF99
S11310AC200032BD38B50025FFF7A8FF05004F48D6
S11310BC04682800FFF7A6FF200000F088F832BD72
S11310CC38B50025FFF79AFF050049480468280045
S11310DCFFF798FF200000F07AF832BD80B5454840
S11310EC0088401C4349088043480088002803D1E9
S11310FC01F03EF8414908603F480088401C3E49D5
S113110C088001BD80B53C480088401E3A490880DF
S113111C39480088002814D101F02AF838490860AD
S113112C3748006835490968401A304909688142D2
S113113C01D22E4908602E490968814201D22C49FA
S113114C086001BD80B5FFF789FF01BD80B5264855
S113115C0021016001F000F801BD70B500242548A0
S113116C00210180244800210180244800210160D1
S113117C2348002101601D48002101601C48002106
S113118C01602048002101600025FFF737FF0400AF
S113119C00260AE0154800210160FFF79FFFFFF7C6
S11311ACB1FF124800684519761CB6B2002EF1D076
S11311BC0120B5FBF0F0134908600C4800210160D4
S11311CC0B48002101602000FFF71CFF70BD0D4986
S11311DC0968814203D20B490968401A00E00020D7
S11311EC70470000F4260020142700202427002038
S11311FC28270020BC270020BE2700201827002009
S113120C1C27002020270020002004E01F49002276
S113121C41F82020401C0028F8D0704710B5002459
S113122C1A4801E02034001D01680029FAD0006836
S113123CFFF7EBFE04192000C0B210BDC0B2420986
S113124CC0B210F01F010120D1F11F018840D2B2AD
S113125C0E4951F822100843D2B20C4941F822002D
S113126C7047C0B24209C0B210F01F010120D1F185
S113127C1F018840D2B2054951F8221031EA00000E
S113128CD2B2024941F822007047000034270020F2
S113129C10B50400FFF7ABFCDFF82C08002101703B
S11312ACDFF8280800210170DFF8C0080021017064
S11312BCDFF8BC0800210160DFF8B80800210160E8
S11312CCDFF8C80800210160DFF8C40800210170B0
S11312DCDFF8C00800680A21B0FBF1F0DFF8B81899
S11312EC0860DFF8B808006800280ED0DFF8B008F2
S11312FC0068002809D0DFF8A418096803E0491E27
S113130C00220260001D0029F9D1DFF8C808002171
S113131C0160DFF8C40800210160DFF8C008002177
S113132C0160DFF8BC0800210160DFF8B808002177
S113133C0160DFF8B40800210160DFF858090021CE
S113134C0160FFF761FF00F05CFB2000FFF7B3FACC
S113135C208800283FD1200000F0C2F92088002802
S113136C39D1200000F004FD2088002833D120005E
S113137C01F004FA208800282DD1200001F074FA21
S113138C2088002827D1200001F07CFA208800282E
S113139C21D12000FFF758FD208800281BD1200004
S11313AC01F07EFA2088002815D1200001F0EBFB17
S11313BC208800280FD1200001F054FC208800283C
S11313CC09D1200001F05CFC2088002803D101F035
S11313DCD7FD01F0EDFE10BDDFF8F0060078012812
S11313EC0BD1DFF8E4060078FA2806DADFF8D80621
S11313FC0078401CDFF8D0160870704710B5002434
S113140CDFF8C806007801285BD1FFF7F7FD04006C
S113141CDFF8B4060078002803D12000FFF7F2FDB2
S113142C4FE0DFF8A4060078401EDFF89C16087025
S113143CDFF894060078002803D02000FFF7E2FDC3
S113144C3FE0DFF828070078002803D02000FFF7DE
S113145CD9FD36E0FFF7E2FEDFF83C180870DFF840
S113146C380800780C21DFF8342801FB00200068D0
S113147CDFF82C180860DFF828080068DFF8241857
S113148C0968884203D12000FFF7BCFD19E0DFF89E
S113149C10080068D0F88C00401CDFF804180968A8
S11314ACC1F88C00DFF800080068401CDFF8F8175E
S11314BC0860DFF8F8075FF0805101602000FFF747
S11314CCA1FD10BD10B50024DFF8FC050078002840
S11314DC3ED1DFF898060078002839D1FFF78EFD4D
S11314EC0400FFF79BFEDFF8B0170870DFF8A807BD
S11314FC00780C21DFF8A42701FB00200068DFF83A
S113150CA0170860DFF898070068DFF898170968D7
S113151C884203D12000FFF775FD19E0DFF880073E
S113152C0068D0F88C00401CDFF874170968C1F807
S113153C8C00DFF874070068401CDFF86C17086037
S113154CDFF868075FF0805101602000FFF75AFD57
S113155C10BD38B504000025DFF86C0500780028B0
S113156C03D046F66250208026E0DFF86005007850
S113157C012803D045F6896020801DE0DFF8300790
S113158C0078FA2803DB45F20920208014E0FFF7E9
S113159C35FD0500FFF7A2FDDFF814070078401CA9
S11315ACDFF80C17087000F0E7FAFFF7ABFD280022
S11315BCFFF728FD0020208031BD38B5040000253C
S11315CCDFF804050078002803D046F66550208027
S11315DC36E0DFF8F8040078012803D045F689607A
S11315EC20802DE0DFF8C8060078002803D146F6E9
S11315FC6450208024E0FFF701FD0500FFF76EFD29
S113160CDFF8AC060078401EDFF8A4160870DFF88B
S113161CA0060078002808D0FFF774FD2800FFF717
S113162CF1FC46F6635020800AE000F0BBFAFFF7A9
S113163C69FD2800FFF7E6FCFFF744FF002020803B
S113164C31BD10B50400DFF884040078002826D1DD
S113165CFFF7E4FDDFF840160870DFF85806DFF8F2
S113166C381609780170DFF8300600780C21DFF8A1
S113167C2C2601FB00200068DFF824160860DFF834
S113168C2406DFF81C1609680160DFF84004012108
S113169C017001F015FE43F69920208002E045F616
S11316AC8A60208010BD10B50024FFF7A7FC04004D
S11316BCFFF714FDDFF800060068401CDFF8F8158E
S11316CC0860DFF8F8050068401CDFF8F0150860C6
S11316DCFFF718FD2000FFF795FCFFF77FFAE4E70E
S11316EC00B589B0DFF8D01500220A6008900320F9
S11316FC0790002006900020059000200490DFF84D
S113170CC00500680390DFF8BC0500680290DFF8A0
S113171CB80500680190072000900023DFF8AC2581
S113172CDFF8AC15DFF8AC05FEF7F2FC09B000BD30
S113173C70B504000D001900DFF86805006880F826
S113174C3420DFF860050068002280F83520DFF8CB
S113175C5405006800F0CEFA002D0ED015F10806E1
S113176CE56001222100DFF83C05006800F016F862
S113177C2100300000F063F809E0DFF82805006868
S113178C0021C187DFF81C05006800210163DFF824
S113179C14050168280000F01BF870BD10B4C28752
S11317AC016300230EE000244C6000240C60002430
S11317BC0C6100244C6100240C830024CC618860EF
S11317CC20315B1C9BB292B29342ECD310BC704799
S11317DC002809D04268C1F8C02010F1080109683A
S11317EC8968096AC16113E091F83400022802D0B7
S11317FC072805D009E0DFF8E004C1F8C00007E0D1
S113180CDFF8D804C1F8C00002E087A0C1F8C0001A
S113181C704785A2C1F8C02010F10801096800299D
S113182C03D08968096AC16101E07FA1C161704775
S113183C002101600021416000210181704710B436
S113184C8A6892F837200389002B08D1012202817F
S113185C00224A6000220A600160416024E003898E
S113186C5B1C0381046800E06468002C05D0A36849
S113187C93F83730D2B29A42F6D2002C06D1002219
S113188C4A6042680A60516041600DE02268002A97
S113189C05D1216000220A604C60016004E02268DA
S11318AC0A604C605160216010BC704770B5040034
S11318BC266BE58F06E0F0680830310000F00AF87A
S11318CC20366D1EADB2002DF5D10020E08700202E
S11318DC206370BD0289012A04D100220260002217
S11318EC426013E00A68002A04D14B6800221A6093
S11318FC03600BE04A68002A04D10A680023536091
S113190C426003E00A684B6853601A600289521EF5
S113191C02810020486000200860704738B505003B
S113192C0C00049894F8361000290BD002290AD024
S113193C08D3042906D006D3062929D002D30729B3
S113194C26D04AE049E094F83410032906D10090DB
S113195C9BB22100280000F041F803E0E265A4F8F2
S113196C60302064002D06D02000FFF79FFF21007B
S113197C2800FFF74EFF200000F0D9F9002084F86E
S113198C3600002084F83500002084F8340024E06C
S113199C94F83410032906D100909BB2210028003E
S11319AC00F01CF803E0E265A4F860302064200029
S11319BC00F0BBFA002D06D02000FFF777FF2100C2
S11319CC2800FFF726FF042084F83600002084F852
S11319DC3500002084F83400FFE731BD30B40C6BC3
S11319ECC98F01E02034491E89B2002907D0E5686B
S11319FCA842F7D12061626123830298E06130BC74
S1131A0C704700200BE0C0B20C21A44A01FB00215A
S1131A1C00220A8100220A6000224A60401CC0B2E3
S1131A2C0828F0D3704700002000000010B5040013
S1131A3C94F83700FFF702FC94F837009D490978B5
S1131A4C884203D1200000F022F802E0200000F0CC
S1131A5C01F810BD90F837100C22904B02FB0131A9
S1131A6C0A89002A08D101220A810022C2600022BC
S1131A7C02610860486009E00A89521C0A810A68FC
S1131A8CC260002202610A6810610860704790F815
S1131A9C37100C22814B02FB01310A89002A08D130
S1131AAC01220A810022C26000220261086048609F
S1131ABC08E00A89521C0A810022C2604A68026149
S1131ACCD060486070470000D1270020D227002046
S1131ADC10B40189002902D0022901D00BD215E0DF
S1131AEC016842680A610023CB6000231361D16052
S1131AFC026041600AE001684268CB6800241C6102
S1131B0C0024CC600A61D1600360416010BC704752
S1131B1C10B5040094F837000C21604A01FB002036
S1131B2C2169E268002913D1002A0AD1002101811C
S1131B3C002101600021416094F83700FFF791FB0C
S1131B4C0FE00189491E018100211161026008E046
S1131B5C03895B1E0381CA60002A01D1416000E045
S1131B6C1161002020610020E06010BDD527002009
S1131B7C6C2700207027002080B54D480078012880
S1131B8C03D100F0F5FA5649086001BD7427002012
S1131B9CD6270020A4570000782700207C5700008B
S1131BAC7857000080B542480078002810D100F026
S1131BBCDFFA4B490968401A4A490968814201D243
S1131BCC4849086048490968814201D2464908607D
S1131BDC01BD0000382700203C27002040270020AE
S1131BEC44270020482700204C27002038B5040047
S1131BFC00253E48007801284AD1FFF7FFF905007B
S1131C0CFFF76CFA2068002805D1FFF77BFA28004F
S1131C1CFFF7F8F93CE02F49884205D1FFF772FA37
S1131C2C2800FFF7EFF933E0816D002902D0816DB4
S1131C3C491E8165806D002805D0FFF763FA2800E2
S1131C4CFFF7E0F924E02089022805DAFFF75AFAB5
S1131C5C2800FFF7D7F91BE015480078002805D0B9
S1131C6CFFF750FA2800FFF7CDF911E02000FFF739
S1131C7C2FFF2068416D002903D11D490968816536
S1131C8C01E0416D8165FFF73DFA2800FFF7BAF9D1
S1131C9C31BD000050270020D427002064260020EA
S1131CACB8270020B42700209027002004ED00E082
S1131CBCD5270020D327002054270020802700207C
S1131CCC705700006C57000068570000B3160000F2
S1131CDC845600008422002058570000145700003A
S1131CEC6C2700207027002074270020D6270020A2
S1131CFC7827002010B582B00400002910D000AB66
S1131D0C0222200000F083F8BDF80000002803D163
S1131D1C032084F8360006E0022084F8360002E042
S1131D2C022084F836002000FFF7F2FE13BD10B534
S1131D3C0400200000F0F9F894F83600400702D4AF
S1131D4C2000FFF773FE10BD00B583B000AB01AAF1
S1131D5C00210020FEF722FCBDF800100029F5D16B
S1131D6CDFF8C00300780128F0D100F00EF9EDE79C
S1131D7C10B58AB00400DFF8B00300210160DFF86D
S1131D8CAC030021016000F02DF8DFF8A403007807
S1131D9C072803D346F27320208021E00894032003
S1131DAC0790002006900020059000200490DFF896
S1131DBC840300680390DFF8800300680290DFF866
S1131DCC7C0300680190DFF868030078009000231E
S1131DDCDFF86C23DFF86C13DFF86C03FEF798F96B
S1131DEC0AB010BD00200BE080B2DFF8601311EBD9
S1131DFCC00100220A6000228A800022CA80401C92
S1131E0CDFF84C13098880B28842EDD3704730B4A4
S1131E1C92B2042A29D1C44A12688A1A521ECD4C91
S1131E2CA24209D30021C164002101650021C161D2
S1131E3C47F27E20188076E0C164511C0165C16CA8
S1131E4CC34A1288B1FBF2F402FB141189B2BF4AE3
S1131E5C12EBC1018A88002A32D10022426100228D
S1131E6C8261086001228A8054E000291ED092B25B
S1131E7C082A15D1826C8C18AB4A1268A21A521E0D
S1131E8C8A4201D2C46403E0A74A12688918C16467
S1131E9CC16CA54A1268891A0165C16C8164CEE7CC
S1131EACA14A12688A18C2640165C8E70021C1649A
S1131EBC002101650021C16147F27E20188032E0C7
S1131ECC0A6805E094698461426160619061002252
S1131EDC002A1CD0D46C944D2D68641B1465146DAD
S1131EEC056DAC420AD25469002C01D05269EFE75B
S1131EFC00244461826150610022E9E79469002C5A
S1131F0CE0D100248461426190610860DFE78A8833
S1131F1C521C8A80CA888C88A24201D28A88CA80C0
S1131F2CC1610020188030BC7047C16900291CD0E5
S1131F3C002202650A68824206D142690A60002ABC
S1131F4C08D00023936105E0826943695361002B37
S1131F5C00D09A6100224261002282610022C26197
S1131F6C0022C2648888401E88807047002006E0E6
S1131F7C80B2764911EBC0010022CA80401C74491E
S1131F8C098880B28842F3D370472DE9F0410024CC
S1131F9CFFF734F80400FFF7A1F800F0E9F80500A6
S1131FAC61480068401C604908605F4800686849E3
S1131FBC0988B0FBF1F201FB120080B2634911EB0A
S1131FCCC000D0F80080002600E0B846F6B2002E1F
S1131FDC40F09780B8F1000F00F09180D8F814709D
S1131FEC98F8360000280BD0022809D009D304280D
S1131FFC06D01CD3062803D042D3072856D0E4E7D6
S113200CE3E7D8F84C0048490968401AC8F850006E
S113201C45480068D8F84C10884206D1002088F84E
S113202C36004046FFF783FE00E00126CDE7D8F8E2
S113203C4C003D490968401AC8F850003A480068F9
S113204CD8F84C10884219D10020C8F85C00002044
S113205CA8F8600000F08CF8C8F840004046FFF780
S113206C25FC4046FFF763FE002088F83600032069
S113207C88F83500002088F8340000E00126A4E735
S113208CD8F84C0028490968401AC8F8500026486A
S113209C0068D8F84C10884206D1042088F8360021
S11320AC4046FFF742FF00E001268EE7D8F84C00CB
S11320BC1D490968401AC8F850001B480068D8F834
S11320CC4C10884219D10020C8F85C000020A8F8F4
S11320DC600000F04DF8C8F840004046FFF7E6FBFE
S11320EC4046FFF722FF042088F83600032088F8C6
S11320FC3500002088F8340000E0012665E701264D
S113210C64E700F035F8401B08490968814201D2A4
S113211C06490860FEF7F6FF2000FEF773FFBDE8E2
S113212CF0810000D2270020982700209C27002053
S113213C0D580000B0570000AC570000A857000021
S113214C551D0000AC5600000C24002094250020E2
S113215C824300000100FFFF80B50748006850F07F
S113216C01000549086001F01BF9FEF788FF01BD69
S113217C0248006870470000001000E0041000E002
S113218CF8B505000E0014000027DFF87002007883
S113219C002803D047F27520208047E0DFF8600266
S11321AC0078002803D046F6635020803EE0B6B297
S11321BC3000002805D0022803D0042824D0082895
S11321CC23D1002D03D147F27E2020802EE0FEF790
S11321DC15FF0700FEF782FFDFF8280200680121D3
S11321EC80F836102300320092B22900DFF8140272
S11321FC0068FFF70CFE208800280AD0FEF782FF47
S113220C3800FEF7FFFE11E0E1E745F6256020807B
S113221C0CE07C480068FFF77BFCFEF773FF38008A
S113222CFEF7F0FEFFF74EF900202080F1BDF8B563
S113223C0024079D714E3678002E03D047F275208A
S113224C2880B5E06E4C2478002C03D046F66350FD
S113225C2880ADE0069C14F00E06B6B23700002FB1
S113226C05D0022F03D0042F17D0082F16D1002B22
S113227C0CD192B2002A09D189B2002906D180B2BC
S113228C002803D147F27E20288091E04FF6E17CB0
S113229C14EA0C0F06D1002705E0F7E745F6256094
S11322AC288085E00127FFB2012F03D145F6256074
S11322BC28807DE0C4F30014A4B214F00104E4B249
S11322CC012C1BD0B3F57A7F03D347F27B202880F3
S11322DC6EE092B23C2A03DB47F27A20288067E056
S11322EC89B23C2903DB47F27920288060E080B274
S11322FC642814DB47F27820288059E089B242F232
S113230C1074A14203DB47F27920288050E080B29C
S113231CB0F57A7F03DB47F27820288048E03A4C0A
S113232C246880B24FF4616789B25FF03C0C0CFBFB
S113233C01F107FB001092B210184FF4FA71B1FBC3
S113234CF4F1C91801FB04F14FF47A72B1FBF2F108
S113235C04FB0017002F28D0FEF750FE0400FEF7F4
S113236CBDFE28480068012180F836102B0032008D
S113237C92B2390023480068FFF749FD28880028E9
S113238C05D0FEF7BFFE2000FEF73CFE10E01D4812
S113239C0068FFF7BDFBFEF7B5FE2000FEF732FE2A
S11323ACFFF790F80020288002E047F27E20288076
S11323BCF1BD10B582B0FEF7D0FC00AA0021134881
S11323CCFEF7D3F90400124800780C21114A01FBE2
S11323DC0020FFF70BFC10480068401E0E490860F3
S11323EC0D480068002808D10B480C4909680160A5
S11323FC00AA00210A48FEF7B8F913BDD127002022
S113240CD5270020B4270020A45700000C2400205A
S113241CD327002064260020B0270020AC270020FE
S113242CD024002080B50A00002100F001F801BD81
S113243C30B4002A27D0002825D00023002403E040
S113244C1B02C9B20B43641C042CF9D30425B0FB46
S113245CF5F404FB1504E4B2002C08D003E001707D
S113246C401C521E641C002A01D0042CF7D302E039
S113247C0360001D121F042AFAD202E00170401CF2
S113248C521E002AFAD130BC704750F8041B61B1BB
S113249C50F8042BD30744BFA9F101039A18002365
S11324AC42F8043B091FFAD1EFE7704770B50400FA
S11324BC0025DFF8580300210160DFF854030021E4
S11324CC0160DFF8500300210160DFF84C030021A8
S11324DC0160DFF8480300210160DFF8440306685B
S11324EC2AE0FEF78BFD0500FEF7F8FD0020C6F888
S11324FCB0000020C6F8B4000020B0670020C6F875
S113250CA4000020C6F88C00002086F88B00002064
S113251CC6F898000020C6F89C00FFF729FEC6F800
S113252C940016F1640000218181D6F8BC60FEF79A
S113253CE9FD2800FEF766FD002ED2D1FFF716FD4B
S113254C00F073FCB74806680EE0FEF757FD050073
S113255CFEF7C4FD16F1200000218181B669FEF757
S113256CD1FD2800FEF74EFD002EEED10020208078
S113257C70BD38B50400002500AA00210220FFF725
S113258CFFFDBDF80000002803D0BDF8000020803A
S113259C3AE0FEF733FD0500FEF7A0FDA24800214A
S11325AC0160FEF7AFFD2800FEF72CFD00209F49CB
S11325BC09689F4A1268914205D29D4800689B495C
S11325CC0968B0FBF1F0002804D1994800680A218D
S11325DCB0FBF1F000AA0021FFF7D2FDFEF70EFDCF
S11325EC0500FEF77BFD89480021016091488E4966
S11325FC09680160904801210170FEF783FD2800F1
S113260CFEF700FD0020208031BD2DE9F04182B0A1
S113261C002606E000AA0021844800684000FFF769
S113262CAFFD854800780128F4D100A8FFF73EFFE0
S113263C00247E4800687E490968884205D27C489B
S113264C00687A490968B0FBF1F4002C1DD1784874
S113265C00680A21B0FBF1F417E0784800780128EF
S113266C05D176480021017000A8FFF71FFFFFF782
S113267C7FFD401B65490968814201D263490860AA
S113268C00AA00212000FFF77BFDFFF771FD050078
S113269CFEF716FD60490860FEF7B0FC0600FEF775
S11326AC1DFD67486049096801605F4800210160AD
S11326BCFEF728FD3000FEF7A5FC614800685D4973
S11326CC0968884214D25B48006800280CD05C4826
S11326DC00686421484357490968B0FBF1F0D0F114
S11326EC64005849087006E056486421017002E001
S11326FC544864210170FEF784FA00274848D0F846
S113270C008015E0FEF77AFC0600FEF7E7FCD8F82B
S113271C9800C8F89C000020C8F89800FEF7F2FC5A
S113272C3000FEF76FFCD8F89C00C719D8F8BC80B1
S113273CB8F1000FE6D16420B7FBF0F73848D0F8B5
S113274C00800CE0002088F88B0000AB18F1A80284
S113275C18F1AC014046FEF716F8D8F8BC80B8F175
S113276C000F3FF47AAF002FECD0D8F89C00B0FBEC
S113277CF7F0C0B26528E6D36420E4E700B589B06D
S113278C294900220A602E4900220A6029490022A4
S113279C0A60294900220A70284900220A702A4931
S11327AC0968002903D146F62C6101802CE02749E5
S11327BC0968274A1268914203D246F62D610180BA
S11327CC22E024490978072903D346F273210180B6
S11327DC1AE0089003200790002006900020059032
S11327EC002004901948006803901B48006802906C
S11327FC1548006801901748007800900023174A88
S113280C17491848FDF784FC09B000BD8C2700203B
S113281C9C270020A4270020582700207027002084
S113282C9427002068270020802700208C57000064
S113283CA457000084270020D8270020D927002083
S113284C88270020D72700209057000098570000B5
S113285CA05700000C5800009457000017260000E5
S113286C9856000048230020054900220A600349B9
S113287C00220A800021018070470000C02700203C
S113288C5C270020054900220A60034900220A80C3
S113289C0021018070470000C2270020602700201F
S11328AC054900220A60034900220A8000210180A4
S11328BC70470000C4270020642700202DE9F04154
S11328CC06000F0090461C000025B4480078002830
S11328DC03D042F6E16020802FE0002E03D145F6B0
S11328ECC350208029E01FFA88F8B8F1000F03D1F7
S11328FC46F29450208020E0FEF780FB0500FEF7A2
S113290CEDFBA74830607760414689B216F1200090
S113291CFEF7E2FA16F10800FEF78AFF300000F029
S113292C1EF9A0480088401C9E490880FEF7EAFB6B
S113293C2800FEF767FB00202080BDE8F0812DE91C
S113294CF04F89B004000D0016001F005FF0000862
S113295CDDF84C9091480078002805D046F2AE1072
S113296CA9F800000020D4E0002C05D145F6C35092
S113297CA9F800000020CCE0002F05D146F2D520A8
S113298CA9F800000020C4E0B6B23000002802D040
S113299CB0F5004F23D120688149884225D1DDF858
S11329AC48A0BAF1000F02D00020CAF80000FEF7CC
S11329BC25FB8046FEF792FB4B465246390014F138
S11329CC2000FEF793FA8346B9F80000002812D1D0
S11329DCFEF798FB4046FEF715FB584699E045F682
S11329EC2560A9F80000002093E045F6C450A9F82E
S11329FC000000208DE030040AD5FEF783FB40462E
S1132A0CFEF700FB46F2B010A9F80000002080E0AD
S1132A1C6548007800280AD0FEF774FB4046FEF7A0
S1132A2CF1FA46F66350A9F80000002071E02B007F
S1132A3C0522210000A8FEF77BFEFEF763FB40464F
S1132A4CFEF7E0FAFEF73EFDFEF7D8FA8046FEF7F5
S1132A5C45FB5648006890F83500002805D002283C
S1132A6C38D017D3032826D045E050480068D0F856
S1132A7C5CB04E480068B0F860003880BAF1000FC2
S1132A8C04D04A480068006CCAF800000020A9F879
S1132A9C000038E05FF0000B00203880BAF1000F22
S1132AAC04D042480068006CCAF8000046F2A91031
S1132ABCA9F8000027E05FF0000B00203880BAF181
S1132ACC000F02D00020CAF8000047F2D920A9F860
S1132ADC000018E05FF0000B00203880BAF1000F02
S1132AEC04D032480068006CCAF8000045F6C250A5
S1132AFCA9F8000007E05FF0000B0020388046F6D0
S1132B0C2B60A9F80000FEF7FDFA4046FEF77AFAAE
S1132B1C584609B0BDE8F08F2DE9FC4105000E00C4
S1132B2C17009846089C002D03D145F6C35020800D
S1132B3C13E028681A49884203D045F6C450208013
S1132B4C0BE0FFF715FB0194009043469BB23A004F
S1132B5C92B23100280000F02DF8BDE8F3810EA1EB
S1132B6CC1610021416112490968002902D1002187
S1132B7C816105E00E49096881610D490968486164
S1132B8C0B49086070470A4900220A600549002273
S1132B9C0A8000210180704720000000D12700200A
S1132BAC51554555C6270020D5270020B4270020B1
S1132BBC682700202DE9F04F83B004000D001600A7
S1132BCC1F005FF0000AFEF719FA8246FEF786FA38
S1132BDC14F10800DDF83080DDF834900189002907
S1132BEC16D1F80601D4002300E01023CDF804908C
S1132BFCCDF800809BB2320092B2290014F120006F
S1132C0CFEF7ACF9FEF77EFA5046FEF7FBF927E027
S1132C1CB90502D5B0F808B001E05FF0010B00680B
S1132C2C0DE0816840680190CDF8008033009BB2C0
S1132C3C2A002000FEF772FE0198BBF1010B1FFA6B
S1132C4C8BFBBBF1000FECD1FEF75CFA5046FEF7A0
S1132C5CD9F9380401D4FEF735FC0020A9F800009A
S1132C6CBDE8F78F054900220A60034900220A8057
S1132C7C0021018070470000C82700207C27002019
S1132C8C00B589B0AF4900220A60AF490968002930
S1132C9C08D0AE490968AC4A1268B1FBF2F1AC4AEF
S1132CAC116006E0A94909680A22B1FBF2F1A84AAD
S1132CBC1160A849A64A12680A60A14900220A6058
S1132CCCA54900220A6000210AE089B2A34A12EB4A
S1132CDCC102002393800023D38000231360491C7A
S1132CEC9F4A128889B29142EFD39E490968002900
S1132CFC03D147F2463101802DE09B4909689B4A78
S1132D0C1268914203D247F24631018023E098497C
S1132D1C0978072903D346F2732101801BE008903C
S1132D2C03200790002006900020059000200490BA
S1132D3C8D48006803908F480068029089480068A9
S1132D4C01908B480078009000230FF249128A49B5
S1132D5C8A48FDF7DDF909B000BD10B4022280F8F1
S1132D6C2A2089B2012905D1416A754A1268511881
S1132D7C81610DE0016A002905D1416A704A12682B
S1132D8C5118816104E0016A6D4A1268511881611D
S1132D9C8169734A1288B1FBF2F302FB131189B2F5
S1132DAC6E4A12EBC1010A68002A07D100220261A3
S1132DBC002242610860012088802EE08269604B09
S1132DCC1B68D21AC2610B6805E05A69426103613F
S1132DDC106158610023002B1CD09A69584C24684C
S1132DEC121BDA61DA69C469A2420AD21A69002A8E
S1132DFC01D01B69EFE700220261436118610023D3
S1132E0CE9E75A69002AE0D1002242610361586162
S1132E1C0860DFE78888401C8880C8888A889042CC
S1132E2C01D28888C88010BC7047002106E089B2A2
S1132E3C4A4810EBC1000022C280491C4848008853
S1132E4C89B28142F3D370478169454A1288B1FB38
S1132E5CF2F302FB131189B2404A12EBC1010A6866
S1132E6C824206D102690A60002A08D00023536109
S1132E7C05E0426903691361002B00D05A610122F9
S1132E8C80F82A2000220261002242618888401EB8
S1132E9C88807047F0B583B00BE0FFF769F9041B29
S1132EAC00A8FEF78AFB2C480068A04201D22A48ED
S1132EBC046000AB01AA00210020FDF76FFB0500A4
S1132ECC00A8FEF746FBFFF753F904001C48006802
S1132EDC401C1B4908601A48006821490988B0FB4A
S1132EECF1F201FB120080B21C4911EBC000066820
S1132EFC002700E00127FFB2002FCED1002EF9D01D
S1132F0C35690F480068B169884216D13000FFF763
S1132F1C9BFF308D022804D101213000FFF71DFFE7
S1132F2C02E0032086F82A00B2681000002802D0C0
S1132F3CF168300090472E00DDE70127DBE7000045
S1132F4CA8270020A0270020BC570000A45700008D
S1132F5CAC270020B0270020A4270020FC2500204B
S1132F6CBA4E0000C0570000C8570000A05700001C
S1132F7C0E580000C457000008560000D02400204E
S1132F8C4548464908004649080046490800464950
S1132F9C08004649080046490800464908004649C5
S1132FAC08004649080046490800464908004649B5
S1132FBC08004649080046490800464908004649A5
S1132FCC0800464908004649080046490800464995
S1132FDC0800464908004649080046490800464985
S1132FEC0800464908004649080046490800464975
S1132FFC0800464908004649080046490800464965
S113300C0800464908004649080046490800464954
S113301C0800464908004649080046490800464944
S113302C0800464908004649080046490800464934
S113303C0800464908004649080046490800464924
S113304C0800464908004649080046490800464914
S113305C0800464908004649080046490800464904
S113306C08004649080046490800464908004649F4
S113307C08004649080046490800464908004649E4
S113308C08004649080046490800464908004649D4
S113309C08004649080070474A520000E0570000F7
S11330AC0F58000010580000D857000011580000A9
S11330BC0855000012580000135800001458000062
S11330CC15580000E6550000F25500001658000093
S11330DCA455000017580000E457000018580000CD
S11330ECE6570000E8570000EA570000DC540000E3
S11330FC195800001A5800001B580000EC57000027
S113310C1C5800001D580000EE570000F05700003A
S113311CF2570000F4570000F6570000F85700006F
S113312CAC5400001E5800001F580000205800002A
S113313C21580000FA5700002258000030550000B6
S113314C235800002458000025580000265800007D
S113315CFC570000FE570000DC5700002758000005
S113316C28580000295800002A5800002B58000049
S113317C2C5800002D5800002E5800000058000058
S113318C2F5800003058000002580000045800006A
S113319C31580000325800007854000033580000B5
S11331AC3458000006580000085800000A58000063
S11331BC21482249080022490800224908002249D2
S11331CC0800224908002249080022490800224923
S11331DC0800224908002249080022490800224913
S11331EC0800224908002249080022490800224903
S11331FC08002249080022490800224908002249F3
S113320C08002249080022490800224908002249E2
S113321C08002249080022490800224908002249D2
S113322C08002249080022490800224908002249C2
S113323C0800224908007047D45700006857000062
S113324C6C5700007057000074570000785700004A
S113325C7C57000080570000FE3A000084570000A1
S113326C885700000C5800008C5700009057000041
S113327C94570000985700009C570000A05700007A
S113328CA45700000D580000A8570000AC570000CC
S113329CB0570000B457000082430000B857000038
S11332AC0E580000BC570000C0570000C457000063
S11332BCC8570000CC570000BA4E0000D05700008D
S11332CC1748FF210170002080F309881548016814
S11332DC81F3088814481549016062B6FEE772B69A
S11332ECEFF3098028B1203880E8F00F1049096801
S11332FC086000B50F4880475DF804EB0E480F4991
S113330C0A7802700A480E490A680260106890E84C
S113331CF00F203080F309884EF0040E62B670472B
S113332C22ED00E03027002004ED00E00000001046
S113333CB4270020D70C0000D3270020D42700206A
S113334CB827002080B51B4800F0D0F81A4800F0CC
S113335C89F81A4800F086F8194800F083F81948DF
S113336C00F080F8184800F07DF8184800F07AF85E
S113337C174800F077F8174800F074F85FF0101055
S113338C00F070F8144800F06DF800F0A7FA00F0A3
S113339CC4FC00F049FD00F007FE00F06FFD01BD18
S11333AC80B500F02EF90D49B0FBF1F10C4A116017
S11333BC02BD00004005C0010200002004000020F2
S11333CC08000020100000202000002040000020F5
S11333DC80000020000100200040001040420F003B
S11333EC0C27002018B500F0704111F1805F1ED13C
S11333FC0106890DDFF8C423C0F30723D31841EA6F
S113340C431343F0844301241C60002301E0009B1C
S113341C5B1C0093009B102BF9D3C0F307201018EE
S113342C41EA401040F084400021016011BD010FBD
S113343C0FF2E03252F8211082B2000C00F01F009F
S113344C02FA00F00A6802430A60002201E0009AC2
S113345C521C0092009A102AF9D30A6822EA00003E
S113346C086011BD00F0704111F1805F04D1C0F30C
S113347C0721DFF84C2303E0010F0FF2A43209E01B
S113348C51180006800D40EA411040F0844001219F
S113349C0160704752F821100A6883B2000C00F0E6
S11334AC1F0003FA00F010430860704752F8211013
S11334BC0A6883B2000C00F01F0003FA00F022EA41
S11334CC00000860704700F0704111F1805F04D176
S11334DCC0F30721DFF8EC2265E1010F0FF24C3247
S11334ECE4E700000138FDD170477047F8B5044695
S11334FCDFF8DC52286810F0E04F1FBF2868DFF8B3
S113350CD4120840B0F1805F01D1002C78D4286E1D
S113351C296F20F4800040F4006641F400672E66A5
S113352C2F67B00701D5A00707D506F0010004F0FA
S113353C010181F0010108420FD064F00300064040
S113354C2E66002F2BD507F07000302818BF70287A
S113355C29D04FF40020FFF7C5FF200960F30A16A9
S113356CDFF874023840DFF874122140084304F089
S113357C080140EAC1072E662F671020FFF7B2FF3F
S113358C200B60F30D36600B60F34D374020A865BB
S113359C002F47BF2F672E662E662F6706E006F0B6
S11335AC30003028D5D14FF48050D4E7DFF8300206
S11335BC3040DFF8301221400843E10D61F3DC5751
S11335CC610008D540F4800027F48001DFF818224C
S11335DC2240114301E027F0804122050AD44FF424
S11335EC00422B6D5B0601D4521EFAD120F400600C
S11335FC21F40061286629671020BDE8F24071E7C8
S113360CF1BDF0B5DFF8C831196E1A6F002A4CBF42
S113361C02F0700601F03006DFF8D001DFF8D0516B
S113362CDFF8B04156B1102E35D0202E50D0302EAC
S113363C6BD0602E6CD0702E6DD06FE0C1F3841003
S113364C0FF2F41555F82000DFF8A85105EA02062C
S113365C16F1004F04D0002A00D40E0500F182802C
S113366C1E682640644FBE425AD1584C2368646885
S113367CC4F30426761C04F01F04641C7443640015
S113368CB0FBF4F09C05A40DC3F3892343439B0ABC
S113369C04FB003064E01E6816F0E04F1DBF1E688A
S11336AC2640B6F1805F5548CED01E682640AE4207
S11336BC02BF1D68ADB2022D06D01D68254085429F
S11336CC04D11868000401D14D48BDE74D48BBE74F
S11336DC1E6816F0E04F1DBF1E682640B6F1805FD1
S11336EC4948B1D01E682640AE4202BF1D68ADB237
S11336FC022D06D01D682540854204D118680004AB
S113370C01D14248A0E742489EE747F230509BE77C
S113371C4FF4800098E74FF4004095E70020F0BD8B
S113372C5E6E06F01F07C6F3481CD3F800E01EF0CB
S113373CE04F1EBF1B682340B3F1805F04D10CF132
S113374C02035843BB1C03E00CFB00F07B1C5B0026
S113375CB0FBF3F0730448BF4008330448BF80083F
S113376C41F480014B0218D5002A11D553000CD515
S113377C05EA020313F1004F03D0002A05D409050E
S113378C03D44000C2F3865104E0C2F3C55101E0F6
S113379CC1F3C351491CB0FBF1F0F0BD0A490A68EE
S11337AC22F4F0127FE651180006800D40EA411015
S11337BC40F08440002101607047000000E50F4098
S11337CC00E60F4000E80F4060E00F4060E10F405E
S11337DC00E00F400000FF708FFFFF7F300000807F
S11337ECFCFF3FF80300C00700004040000003103A
S11337FC000001100008008000000510C0E1E40086
S113380C001BB7000024F40070383900C0C62D002A
S113381C00093D0040E00F4044E00F4048E00F40F9
S113382C00E10F4004E10F4008E10F4020E10F409C
S113383C24E10F4028E10F4040420F0000201C00FF
S113384C80841E0000802500999E360000403800BC
S113385C00093D0000803E0000004B00404B4C0032
S113386C00204E00808D5B0000C05D000080700065
S113387C00127A0000007D0080969800001BB700AF
S113388C0080BB00C0E8CE00647ADA000024F400A7
S113389C0000FA0080A81201002D310100366E01DF
S11338AC40787D0180B5462803D21030C0B200F0B8
S11338BC77FC01BD70B504000D000026462C0CD21B
S11338CCFDF79CFB0600FDF709FC884840F82450E2
S11338DCFDF718FC3000FDF795FB70BD10B5002406
S11338EC05E00FF20D212000FFF7E4FF641C462CC9
S11338FCF7D310BD80B5002000F0E7F801BD80B50A
S113390C012000F0E2F801BD80B5022000F0DDF8E2
S113391C01BD80B5032000F0D8F801BD80B50420AA
S113392C00F0D3F801BD80B5052000F0CEF801BD40
S113393C80B5062000F0C9F801BD80B5072000F061
S113394CC4F801BD80B5082000F0BFF801BD80B5F6
S113395C0E2000F0BAF801BD80B50F2000F0B5F8C8
S113396C01BD80B5102000F0B0F801BD80B5112068
S113397C00F0ABF801BD80B5122000F0A6F801BD33
S113398C80B5132000F0A1F801BD80B5142000F01F
S113399C9CF801BD80B5152000F097F801BD80B5E9
S11339AC162000F092F801BD80B5172000F08DF8B8
S11339BC01BD80B5182000F088F801BD80B5192030
S11339CC00F083F801BD80B51A2000F07EF801BD2B
S11339DC80B51A2000F079F801BD80B51C2000F0E8
S11339EC74F801BD80B51D2000F06FF801BD80B5E1
S11339FC1E2000F06AF801BD80B51F2000F065F8A8
S1133A0C01BD80B5202000F060F801BD80B52120F7
S1133A1C00F05BF801BD80B5222000F056F801BD22
S1133A2C80B5232000F051F801BD80B5242000F0AE
S1133A3C4CF801BD80B5252000F047F801BD80B5D8
S1133A4C272000F042F801BD80B5282000F03DF895
S1133A5C01BD80B52A2000F038F801BD80B52B20BB
S1133A6C00F033F801BD80B52C2000F02EF801BD18
S1133A7C80B52E2000F029F801BD80B52F2000F070
S1133A8C24F801BD80B5302000F01FF801BD80B5CD
S1133A9C312000F01AF801BD80B5322000F015F881
S1133AAC01BD80B5332000F010F801BD80B5342081
S1133ABC00F00BF801BD80B5352000F006F801BD0F
S1133ACC80B5362000F001F801BD10B50400FDF7F7
S1133ADC83FC462C06D2054850F82400010000292A
S1133AEC00D08047FDF78AFC10BD0000D41C0020D8
S1133AFC7047640010B5040000223C21DFF8F40286
S1133B0C00F026FC2100C9B2DFF8E80200F031FC19
S1133B1C0321DFF8E00200F01FFC10BD10B5040017
S1133B2C0021DFF8D00200F002FC0028F8D0DFF806
S1133B3CC8020068FFF7D6FC2100C9B2DFF8B40252
S1133B4C00F017FC0121AB4800F006FC10BD70B569
S1133B5C04000D0017E00021A64800F0E8FB002843
S1133B6CF9D0A44800F0FAFB0600A3480068FFF75C
S1133B7CB9FC21789F4800F0FCFB641C6D1E0121EC
S1133B8C9C4800F0E9FB002DE5D170BD10B5040094
S1133B9C0021984800F0CBFB0028F9D09648006827
S1133BACFFF7A0FC2100C9B2924800F0E2FB05210A
S1133BBC904800F0D1FB00218E4800F0B8FB00289F
S1133BCCF9D08D480068FFF78DFC10BD10B580202E
S1133BDCFFF790FF06218948FFF7B9FF002403E0A3
S1133BEC0020FFF79BFF641C5F2CF9D30020FFF728
S1133BFCCDFF8020FFF77EFF06218148FFF7A7FF4A
S1133C0C002403E00020FFF789FF641C5F2CF9D328
S1133C1C0020FFF7BBFF10BD70B504000D001600AB
S1133C2C8020FFF767FF002E01D1B02000E0B12007
S1133C3CC0B2FFF773FF8020FFF770FF7148006874
S1133C4C401910F00F00FFF769FF8020FFF766FFA3
S1133C5C6C4800684019000910F00F0050F0100077
S1133C6CC0B2FFF75BFF4020FFF758FF04E00020D1
S1133C7CFFF754FF641CAD1D94F9000000282DD0EF
S1133C8C5B2D13D2052194F9000005225E4B02FB37
S1133C9C0030A038FFF75BFF5A2D03D094F90100D4
S1133CAC0028E4D10020FFF771FF17E0D5F15F0184
S1133CBC94F900000522544B02FB0030A038FFF7A6
S1133CCC46FF684294F9001005224F4B02FB013168
S1133CDC401810F8410CFFF759FFFFE770BD10B501
S1133CEC002417E0494820184078FFF703FF4748A1
S1133CFC205C811E45482018801CFFF728FF434890
S1133D0C205C00194149405CFFF740FF3F48205CB0
S1133D1C401C04194D2CE5D310BD10B582B03C48A1
S1133D2C00F0E8FB3B4800F0E5FB01213A4800F0C9
S1133D3CC5FB01220121384800F0AEFB6420009041
S1133D4C02E00098401E009000980028F9D100224F
S1133D5C0121314800F0A0FB6420009002E000989F
S1133D6C401E009000980028F9D1012201212A4814
S1133D7C00F092FB6420009002E00098401E00903A
S1133D8C00980028F9D10321244800F0A5FB24480D
S1133D9CFFF728FBFFF735FC01220100154800F062
S1133DAC9DFA20480068401C44214843124908608D
S1133DBC002417E0154820184078FFF79BFE1348A1
S1133DCC205C811E11482018801CFFF7C0FE0F4890
S1133DDC205C00190D49405CFFF7D8FE0B48205CB1
S1133DEC401C04194D2CE5D3FFF7F0FEFFF777FFC9
S1133DFC13BD0000001002401027002038570000AB
S1133E0C405700008C0000204C5200002854000045
S1133E1C0300060003040600005002400060024048
S1133E2C004000100C10024080B503215B4800F0E8
S1133E3C3DFB0A2301220321584800F0CDFA01BDB1
S1133E4C80B50100C9B2012902D002290AD013E0BD
S1133E5C0121524800F01DFB002801D0012000E094
S1133E6C002009E002214D4800F013FB002801D08A
S1133E7C012000E00020FFE7C0B202BD80B508219C
S1133E8C464800F013FB8021454800F00FFB042149
S1133E9C424800F00BFB8021424800F007FB402114
S1133EAC3E4800F00BFB0823042240213B4800F061
S1133EBC93FA40224021394800F0EEFA08213748A1
S1133ECC00F0D9FA8021364800F0D5FA04213348A1
S1133EDC00F0D1FA8021334800F0CDFA04220821F5
S1133EEC2E4800F05DFA042280212D4800F058FA87
S1133EFC04220421294800F053FA04228021294881
S1133F0C00F04EFA0420FFF7CDFC1F20FFF7CAFC8B
S1133F1C0420FFF7C7FC0220FFF7C4FC01BD10B559
S1133F2C1400C0B200281CD1C9B200290CD108213C
S1133F3C1A4800F0ABFA21000420FFF7BBFC08215F
S1133F4C164800F095FA28E08021154800F09EFAF6
S1133F5C21001F20FFF7AEFC8021114800F088FAE5
S1133F6C1BE0C9B200290CD104210C4800F08EFAD4
S1133F7C21000420FFF79EFC0421084800F078FA85
S1133F8C0BE08021074800F081FA21000220FFF7A2
S1133F9C91FC8021034800F06BFA10BD00400240F4
S1133FAC006002400060004080B50020FFF7F6FB83
S1133FBC764800F09FFA764800F09CFA02224021E1
S1133FCC744800F0FFFAFFF71CFB4FF47A51B0FB76
S1133FDCF1F240216F4800F00BFB022280216D4866
S1133FEC00F0F0FAFFF70DFB4FF47A51B0FBF1F24D
S1133FFC8021684800F0FCFA00224021654800F05A
S113400C04FB00228221634800F0FFFA0022052100
S113401C604800F00DFB40215E4800F0F3FA80216B
S113402C5C4800F0EFFA08215B4800F03FFA0A23E1
S113403C01220821584800F0CFF90421564800F019
S113404C3DFA04220421544800F026FA0321524874
S113405C00F034FA0321514800F030FA0022032115
S113406C4D4800F019FA002203214C4800F014FAD0
S113407C2021494800F022FA20222021464800F051
S113408C0BFA01BD80B5C0B200280ED1C9B200290B
S113409C05D100220221414800F0FEF913E002226E
S11340AC02213E4800F0F8F90DE0C9B2002905D10F
S11340BC02220221384800F0EFF904E00022022128
S11340CC354800F0E9F901BD80B5C0B2002804D12F
S11340DC0121324800F009FA03E001212E4800F0D6
S11340EC04FA01BD80B5C0B2002809D101212B48C6
S11340FC00F0E4F900220121284800F0CDF908E091
S113410C0121254800F0DAF900220121224800F0AF
S113411CC3F901BD10B50C00C0B200281AD101229C
S113412C04211C4800F084FA00220421194800F0F0
S113413C88FAFFF766FA4FF47A51B0FBF1F0A4B2A7
S113414C60434FF4C841B0FBF1F28221114800F0F6
S113415C5CFA19E0012201210E4800F069FA0022F0
S113416C01210C4800F06DFAFFF74BFA4FF47A5129
S113417CB0FBF1F0A4B260434FF4C841B0FBF1F2D0
S113418C4021044800F041FA10BD00000100030076
S113419C02000700008002400070004000700240E2
S11341AC70B50024C0B2002817D0022816D015D33D
S11341BC042814D012D3062837D023D308280CD0C3
S11341CC0BD30A2809D008D30C2807D006D30E2801
S11341DC04D002D30F283BD04DE076E075E0FCF719
S11341EC0DFF0400FCF77AFFDFF8E000006850F4E0
S11341FC8030DFF8D8100860FCF784FF2000FCF74F
S113420C01FF62E0FCF7FAFE0400FCF767FFDFF83D
S113421CBC00006850F40030DFF8B0100860FCF704
S113422C71FF2000FCF7EEFE4FE0FCF7E7FE040004
S113423CFCF754FFDFF89400006850F48020DFF89A
S113424C8C100860FCF75EFF2000FCF7DBFE3CE002
S113425CFCF7D4FE0400FCF741FFDFF8740000689F
S113426C50F00100DFF868100860FCF74BFF2000E9
S113427CFCF7C8FE29E0DFF85C100968491C11F052
S113428C1F0149011031C0B2C9B288421DD2C0B25B
S113429CB0F11001202291FBF2F5C0B210382021AC
S11342AC90FBF1F606FB1106FCF7A8FE0400FCF7E4
S11342BC15FFEDB2DFF820000121B14040F82510C4
S11342CCFCF720FF2000FCF79DFE70BD24ED00E000
S11342DC10E000E004E000E000E100E070B504460A
S11342EC0D46164600F01DF8012E0CBF1449154955
S11342FC04F10C00142251434A19521EB2FBF1F181
S113430C491E016004F57C610968C90708D50E498A
S113431C49190E4AB1FBF2F1491E41F080010160CA
S113432C70BD50F8201F41F0100101607047002946
S113433C14BF80694069FFE700B10120C0B2704727
S113434C801A0600A08601007F4737018047370199
S113435C42EA410101607047416070474068C107FF
S113436C05D410F0120F02D000F01C00704700208E
S113437C7047816070470D0030B5CB4300F5806405
S113438CD50725684CBF0D431D40256000F584609E
S113439C920747BF0268114301681940016030BDA0
S11343AC30B5CB4300F58164D50725684CBF0D436C
S11343BC1D40256000F20444950725684CBF0D434D
S11343CC1D40256000F20C40520747BF02681143A0
S11343DC01681940016030BD70B5CC4300F5A0658F
S11343ECD6072E684CBF0E4326402E6000F20455AF
S11343FC96072E684CBF0E4326402E6000F5A1652F
S113440C56072E684CBF0E4326402E6000F5A3655C
S113441C12072A684CBF0A4322402A6000F20C524D
S113442CDD0715684CBF0D432540156000F5A262ED
S113443C9D0715684CBF0D432540156000F21452BE
S113444C5D0715684CBF0D432540156000F21C52E6
S113445C1D0715684CBF0D432540156000F5A5607C
S113446C002B07BF0268114301682140016070BD35
S113447C00F5826060E000F5826061E019B100F53E
S113448C836000687047D0F814047047C0F81C149B
S113449C704750F82100704740F8212070470122E2
S11344AC2946204601B0BDE8304095E738B50446AE
S11344BC0D460022FFF760FF0823F0E738B50446E9
S11344CC0D460823FFE70122FFF786FF0122294648
S11344DC2046BDE838404FE738B500F002F80B230E
S11344ECDDE704460D46022246E738B5FFF7F9FF2F
S11344FC0823D4E730B5C0F307414A000FF24C034C
S113450C0C4C2468012505FA01F10C421ABF03EB8B
S113451C8201496853F82210020A01F22C510B68EB
S113452C0F249440A34300F00F00904018430860FC
S113453C30BD00006CE00F4002681143016070470D
S113454C026822EA0101016070470000004000404B
S113455C0080054000500040009005400060004081
S113456C00A005400070004000B00540004002402F
S113457C00C005400050024000D0054000600240DD
S113458C00E005400070024000F0054000D00340FC
S113459C00000640001006400010064000200640B3
S11345AC0020064000300640003006400040064023
S11345BC0040064000500640005006400060064093
S11345CC00600640401801686FF35201114301600A
S11345DC00F124012030920704D5B02202604FF47C
S11345EC306003E08C22026040F60C0008607047D7
S11345FC401800F11001006880074CBF5008501E91
S113460C08607047081801680EE08B0910EB8310E2
S113461C03689B0748BF520803699A1AC90701D556
S113462CC26170478261704741F0010101607047BB
S113463C0830012A02680CBF114322EA010101600F
S113464C70470C30012A02680CBF114322EA0101A5
S113465C0160704700B58BB009A8FCF719FE09A8D6
S113466C089003200790002006900020059000205D
S113467C0490802003900C200290DFF884060190B3
S113468C0120009000230FF21D02DFF87816DFF8EA
S113469C7806FBF73DFD09A8FCF7D3FF00200BB00F
S11346AC00BD000010B584B000A8FEF74BFEFCF76B
S11346BCCDFC00F069FBDFF85406FEF7D3FEDFF8FF
S11346CC4C06FEF78FFE0021DFF8440600F0DEFBFB
S11346DC50F400620021DFF8380600F0C5FBDFF867
S11346EC2C06FEF7F0FEFEF75BFE0400DFF8240652
S11346FC0068B4FBF0F0FCF74FFB2000FCF7BFFCA8
S113470C02A8FDF736FFFCF7BDFC00F0D1FB00F06E
S113471C7AFA02A8019000200090002301220021C3
S113472C0020FDF784FDF4E7E0B5002014E0D2B2DC
S113473C92B289B2002000F05AFC00210020C0B2D1
S113474CC9B251EA002101A800900023042289B2C5
S113475CDFF8C405FBF70EFF01A8009002AB0DF1C6
S113476C060200210020FBF719FE0100020C000ECA
S113477CC0B20028DBD002280BD002D3032812D0FD
S113478C1BE0D2B292B289B2012000F030FC0121BC
S113479CD4E7D2B213009BB2012289B2002000F0FC
S11347AC90FC0221CAE7D2B213009BB2012289B257
S11347BC012000F086FC0321C0E7FFF707FA002272
S11347CC0A21DFF85805FFF727FA01221E21DFF82A
S11347DC5005FFF721FAFEE71FB5002402A800904C
S11347EC03AB0DF10A0200210020FBF7D7FD80B2C8
S11347FC4FF47A7190FBF1F402A801900020009020
S113480C0023002201210020FDF711FD02200121CB
S113481CC0B2C9B251EA002102A8009000230422BC
S113482C89B2DFF8F404FBF7A5FED7E72DE9F041D4
S113483C84B000A80F25002600270EE0400700D501
S113484C0324C9B2E4B254EA012102A80090002363
S113485C0422DFF8C404FBF78DFE02A801900020AB
S113486C00900523002200210020FDF7E0FC01202C
S113487CFFF7E6FA80460220FFF7E2FAC00050EA9E
S113488C880195EA01007E40FFB2FF4306400740D1
S113489C57EA0602154057EA060291430D4357EABC
S11348AC060148400C210842D7D0012110F00C021B
S11348BC0C2A01D10124C4E70207BFD50224C0E7A6
S11348CC2DE9FE4F5FF0000900240025DFF85404A5
S11348DC00F0A4FC002628275FF01C08F6B2FFB2F7
S11348EC380450EA06601FFA88F858EA000101A857
S11348FC009000230422DFF83004FBF73BFE4EF655
S113490C602101A800900023042289B2DFF81C0462
S113491CFBF730FE12E019F10109F6B2FFB23804CC
S113492C50EA06601FFA88F858EA000101A80090C2
S113493C00230422DFF8F003FBF71CFE01A800900F
S113494C02AB0DF1060200210020FBF727FD834684
S113495C80B25FEA102AFFF739F95FFA8AFABAF1E2
S113496C000F06D0BAF1020F00F01081C0F00681DE
S113497C10E15FFA89F9B9F1000F04D102263C2742
S113498C5FF00708DAE05FFA89F9B9F1010F04D195
S113499C002628275FF00808D0E05FFA89F9B9F1FE
S11349AC020F04D1002628275FF00A08C6E05FFA3C
S11349BC89F9B9F1030F04D1002628275FF00A08FE
S11349CCBCE05FFA89F9B9F1040F04D10026282759
S11349DC5FF00A08B2E05FFA89F9B9F1050F04D166
S11349EC002628275FF00A08A8E05FFA89F9B9F1D4
S11349FC060F04D1002628275FF00A089EE05FFA10
S1134A0C89F9B9F1070F04D1002628275FF00A08A9
S1134A1C94E05FFA89F9B9F1080F04D1002628272C
S1134A2C5FF00A088AE05FFA89F9B9F1090F04D139
S1134A3C002625275FF00A0880E05FFA89F9B9F1AE
S1134A4C0A0F04D1002625275FF0090876E05FFAE7
S1134A5C89F9B9F10B0F04D102262D275FF0070851
S1134A6C6CE05FFA89F9B9F10C0F04D10026232705
S1134A7C5FF0140862E05FFA89F9B9F10D0F04D103
S1134A8C022632275FF0070858E05FFA89F9B9F17A
S1134A9C0E0F04D1002628275FF00A084EE05FFAB7
S1134AAC89F9B9F10F0F04D1002628275FF00A0801
S1134ABC44E05FFA89F9B9F1100F04D100262827D4
S1134ACC5FF00A083AE05FFA89F9B9F1110F04D1E1
S1134ADC002628275FF00A0830E05FFA89F9B9F15B
S1134AEC120F04D1002628275FF00A0826E05FFA8B
S1134AFC89F9B9F1130F04D1002628275FF00A08AD
S1134B0C1CE05FFA89F9B9F1140F04D100261927B6
S1134B1C5FF0110812E05FFA89F9B9F1150F04D1AD
S1134B2C032632275FF0070808E05FFA89F9B9F128
S1134B3C160F03D1002610275FF007085FFA89F9D6
S1134B4CB9F1170FFFF6E7AEFFF740F8E4B2002C0B
S1134B5C05D001220A217648FFF75EF80DE0EDB28C
S1134B6C002D05D001220A217248FFF755F804E004
S1134B7C01220A217048FFF74FF8FEE7E4B2002C3B
S1134B8C7FF4DCAE00F02BFB0124D7E600F027FB0E
S1134B9C0125FEE7FFF71AF800220A216748FFF700
S1134BAC3BF801221E215E48FFF736F8FEE7E0B51C
S1134BBC634800210160002000F038F902E0002075
S1134BCC00F01BF95E4800683C281BDA02A801902F
S1134BDC002000900023012200210020FDF727FB78
S1134BEC57480068401C5649086055480068022123
S1134BFC90FBF1F202FB1102012AE0D0002000F03C
S1134C0C15F9DFE707BD00B58BB009A808900320A0
S1134C1C079000200690002005901420049080201A
S1134C2C03900C200290474801900220009000232E
S1134C3C454A46493848FBF76BFA09A80890032003
S1134C4C079000200690002005900A2004908020F4
S1134C5C03900C2002903E48019003200090002306
S1134C6C3C4A3D493048FBF753FA09A80890032005
S1134C7C079000200690002005900A2004908020C4
S1134C8C03900C20029035480190042000900023DE
S1134C9C334A34492548FBF73BFA09A8089003200A
S1134CAC079000200690002005900A200490802094
S1134CBC03900C2002902C480190052000900023B6
S1134CCC2A4A2B492B48FBF723FA09A808900320FE
S1134CDC079000200690002005900A200490802064
S1134CEC03900C200290244801900420009000238F
S1134CFC224A23492348FBF70BFA0BB000BD0000F2
S1134D0CD4060020C0560000EC1D002000501020DA
S1134D1C00800440A4570000B01E0020D0560000B0
S1134D2CF056000040E20100741F002038200020DF
S1134D3C4857000050570000FC560000E056000095
S1134D4C2C270020D4080020CD4800002056000059
S1134D5CD40A00203547000034560000D40C00203F
S1134D6CE547000048560000D40E002039480000E6
S1134D7C5C560000FC200020D4100020BB4B00002B
S1134D8C08570000C021002080B53548006850F059
S1134D9C2000334908603348006810F5A0600068AF
S1134DAC50F030002F49096811F5A06108602D48B6
S1134DBC0068D0F81C0550F030002A490968C1F885
S1134DCC1C052848006810F58060006850F030001D
S1134DDC2449096811F5806108602248006810F5BF
S1134DEC8460006830F030001E49096811F5846154
S1134DFC0860002000F01AF801BDC0B2002803D0EE
S1134E0C02280CD006D310E0164800683021C0F8F4
S1134E1CC0100AE0134800681021016405E0114831
S1134E2C00682021C0F88010FFE77047C0B200284A
S1134E3C03D002280CD006D310E00A4800680021E5
S1134E4CC0F8C0100AE0074800680021016405E0BE
S1134E5C044800680021C0F88010FFE77047000088
S1134E6C08E10F409000002010B500F120031C68ED
S1134E7CE407FCD492B2C262C80000F0F80040F01F
S1134E8C030018601868C007FCD410BD00F12002A0
S1134E9C1368DB07FCD4C90001F0F80141F00101EF
S1134EAC11601168C907FCD4006B80B270470D0007
S1134EBC70B582B001240025002600AB0A22CF492C
S1134ECCCF48FDF7FBFCCF4800210170CE480021F0
S1134EDC0170FFF769F8FEF7D1FF0FF221023100E0
S1134EECC9B22000C0B2FFF71AF80FF21102310058
S1134EFCC9B22800C0B2FFF712F873BD30B583B045
S1134F0C0121C248FFF7BAFA04000121BF48FFF798
S1134F1CB5FA0500600708D50421BC48FFF7B6FABA
S1134F2CBB480078401CBA490870280708D50821EA
S1134F3CB648FFF7ABFAB7480078401CB54908707F
S1134F4CB4480078AF49097888421ED3B048007839
S1134F5CAD490978884218D3AF4811210170A9488A
S1134F6C00210170A84800210170AA480021017099
S1134F7CA7480021017001A8009000230422A64830
S1134F8C01789F48FDF7C8FD30E0A24800789D49A0
S1134F9C0978884212D3A048102101709948002145
S1134FAC01709C480021017001A800900023042288
S1134FBC994801789248FDF7AFFD17E094480078C2
S1134FCC91490978884211D39348012101708E4884
S1134FDC002101708E480021017001A8009000236B
S1134FEC04228D4801788648FDF796FD37BD7FB5C0
S1134FFC04001500002683480170834801700020CA
S113500CFFF770F80120FFF76DF8290289B2002030
S113501CFFF780F8290289B20120FFF77BF8210001
S113502CC9B20020FFF72EF82100C9B20120FFF706
S113503C29F80020FFF748F80120FFF745F802A8EB
S113504C0190002000900A23002200210020FDF78B
S113505CEEF802A8019003A800900DF10A030022B7
S113506C00216748FDF76BFC0600F6B2112E0CD13B
S113507C0120FFF737F80020FFF734F861480021CE
S113508C017061480021017012E0F6B2102E06D1B5
S113509C0020FFF727F85B480021017008E0F6B206
S11350AC012E05D10120FFF71DF85748002101708E
S11350BC544800780028CCD1534800780028C8D133
S11350CC7FBDF0B585B0040015001E0000274D48C7
S11350DC01704D4801700020FFF704F80120FFF720
S11350EC01F8310289B20020FFF714F8310289B2B9
S11350FC0120FFF70FF8E4B2002C02D0012C12D0DF
S113510C23E000210120FEF7BDFFEDB2012D06D1F5
S113511C01210020FEF7B6FF0020FEF7D5FF012089
S113512CFEF7D2FF17E000210020FEF7ABFFEDB233
S113513C012D06D101210120FEF7A4FF0120FEF769
S113514CC3FF0020FEF7C0FF05E00020FEF7CAFFF6
S113515C0120FEF7C7FF02A80190002000900A234B
S113516C002200210020FDF762F802A8019003A898
S113517C00900DF10A03002200212148FDF7DFFB0A
S113518C0700FFB2BFB2112F0CD10120FEF7AAFF0A
S113519C0020FEF7A7FF1B48002101701A480021CC
S11351AC017012E0BFB2102F06D10020FEF79AFF57
S11351BC14480021017008E0BFB2012F05D1012071
S11351CCFEF790FF1048002101700E48007800286B
S11351DCCBD10D4800780028C7D105B0F0BD80B5FF
S11351EC0120FEF77FFF0020FEF77CFF054800211D
S11351FC017005480021017001BD000070560000CB
S113520CC4260020CC270020CD27002000400240DB
S113521CCF270020CE270020D027002010B504462D
S113522C044800F00BF800210170034800F006F864
S113523C046010BD00000020040000207047010031
S113524C000000000000004F0000000700070014DD
S113525C7F147F14242A7F2A12231308646236498C
S113526C5522500005030000001C2241000041227D
S113527C1C0014083E081408083E080800503000AE
S113528C00080808080800606000002010080402E8
S113529C3E5149453E00427F4000426151494621FE
S11352AC41454B311814127F1027454545393C4A6A
S11352BC49493001710905033649494936064949BA
S11352CC291E003636000000563600000814224110
S11352DC0014141414140041221408020151090678
S11352EC324979413E7E1111117E7F494949363E3E
S11352FC414141227F4141221C7F494949417F0957
S113530C0909013E4149497A7F0808087F00417F19
S113531C41002040413F017F081422417F4040401E
S113532C407F020C027F7F0408107F3E4141413EC6
S113533C7F090909063E4151215E7F091929464618
S113534C4949493101017F01013F4040403F1F2041
S113535C40201F3F4038403F631408146307087013
S113536C08076151494543007F414100020408107C
S113537C200041417F0004020102044040404040AF
S113538C000102040020545454787F4844443838B3
S113539C44444420384444487F3854545418087EB8
S11353AC0901020C5252523E7F0804047800447DD9
S11353BC40002040443D007F1028440000417F40C1
S11353CC007C041804787C08040478384444443879
S11353DC7C14141408081414187C7C08040408485D
S11353EC54545420043F4440203C4040207C1C2016
S11353FC40201C3C4030403C44281028440C505065
S113540C503C4464544C44000836410000007F0076
S113541C0000413608000201020402000480AE8040
S113542CE30680AD808A80E30680A8801F80E304B5
S113543C80C880E30480A080E30480D880E30480E7
S113544C0580E304804080E3068081805D80E30670
S113545C80D9801180E30680D5800180E30680D357
S113546C800080E30480AF80E300000000000000B3
S113547C000000000000000000000000000000001C
S113548C000000000000000000000000000000000C
S113549C00000000000000000000000000000000FC
S11354AC00000000000000000000000000000000EC
S11354BC00000000000000000000000000000000DC
S11354CC00000000000000000000000000000000CC
S11354DC00000000000000000000000000000000BC
S11354EC00000000000000000000000000000000AC
S11354FC000000000000000000000000000000009C
S113550C000000000000000000000000000000008B
S113551C000000000000000000000000000000007B
S113552C000000000000000000000000000000006B
S113553C000000000000000000000000000000005B
S113554C00000000000000000000000010B5074936
S113555C79441831064C7C44163404E00A68081D5E
S113556C511888470146A142F8D110BD080000002B
S113557C2800000017CFFFFF4827000094000020EC
S113558C000000009BBAFFFF94000000A002000082
S113559C00000020000000000000000000000000DB
S11355AC00000000000000000000000000000000EB
S11355BC000000000000000000F00BF8002801D0EF
S11355CCFFF7C4FF0020C046C046FFF743F800F0C5
S11355DC02F80120704700F001B82800074638464D
S11355EC00F002F8FBE7040080B5C046C046024A4E
S11355FC11001820ABBEFBE72600020075432F4FA9
S113560C532D4949492054696D6572205461736B5B
S113561C000000004D61696E20436F6E74726F6CF4
S113562C205461736B0000004D6F746F7220436FD4
S113563C6E74726F6C205461736B000054696D65E9
S113564C7220436F6E74726F6C205461736B000024
S113565C496E707574204D6F6E69746F722054614D
S113566C736B0000495352204D6573736167652059
S113567C517565756500000075432F4F532D4949CD
S113568C492049646C65205461736B0075432F4F3A
S113569C532D4949492053746174205461736B0030
S11356AC75432F4F532D494949205469636B20543A
S11356BC61736B00417070205461736B205374617F
S11356CC727400004552524F5220303A2048414CDB
S11356DC544544004552524F5220333A2048414CD1
S11356EC54454400444F2052455345540000000097
S11356FC44697374616E6365000000004C4544207A
S113570C5461736B000000005461736B2053656D1E
S113571C00000000FEE7FEE7FEE7FEE7FEE7FEE71B
S113572CC046C046C046C046FFF746FFB080048062
S113573C10400000B18004801040000042756D7070
S113574C6572730054696D65720000005461736B6B
S113575C205100003F5461736B000000D4120020F0
S113576C0C0000008000000000020000D414002093
S113577C800000000002000040060000940000209D
S113578C0A000000D41600200C0000008000000069
S113579C0002000040000000E8030000D4180020C0
S11357AC0C000000800000000002000068000000F3
S11357BC0A000000D41A00200C0000008000000035
S11357CC000200006800000010110000785634122A
S11357DC60000000EA030000200010000800100024
S11357EC2C0020000C0020000800040004003000F1
S11357FC28000C000100C400080034000800F875EF
S113580C0605060101010100000000010101000070
S113581C010001000000010100000104010101016B
S113582C0100010001010101010000000000000061
S113583C0100000000000000000000000000000057
S113584C0000000000000000000000000000000048
S113585C0000000000000000000000000000000038
S113586C0000000000000000000000000000000028
S113587C0000000000000000000000000000000018
S113588C0000000000000000000000000000000008
S113589C00000000000000000000000000000000F8
S11358AC00000000000000000000000000000000E8
S11358BC0000000000000000040000000050024042
S903572D78
